:020000040800F2
:10000000F0050020D9000008650A0008630A00080E
:1000100000000000000000000000000000000000E0
:10002000000000000000000000000000A10C00081B
:100030000000000000000000670A00083D0D0008F5
:100040000901000809010008090100080901000868
:100050000901000809010008090100080901000858
:100060000901000809010008090100080901000848
:100070000901000809010008090100080901000838
:10008000090100080901000800000000090100083A
:100090000901000809010008090100080901000818
:1000A0000901000809010008090100080901000808
:1000B000090100080000000009010008000000001C
:1000C0000448854600F0A6FB00480047CD1900080B
:1000D000C046C046F00500200C4880F308880C4854
:1000E0000168090E0B4A914205D10B480B4901608A
:1000F0000B480C4901600C4880470C480047FEE75C
:10010000FEE7FEE7FEE7FEE7FEE70000F005002061
:10011000040000001F000000181002400100000051
:1001200000000140000000005D0D0008C100000853
:1001300030B50B46014600202022012409E00D467F
:10014000D5409D4205D31D469540491B2546954007
:1001500040191546521E002DF1DC30BD03460B43FD
:100160009B0703D009E008C9121F08C0042AFAD26D
:1001700003E00B780370401C491C521EF9D27047F3
:10018000F8B502464A40D40F42004B0052085B08C3
:100190009A4202D20246084611464A0023D0C30DB5
:1001A0004A00DDB2120EAD1A202D35DA49020126C1
:1001B000490AF6058A19002C00D0524220214F1B13
:1001C0001146B9402A411018C20D9A4221D0002C84
:1001D00017D0012D08DCDA05801AD20F8019D2075A
:1001E000DBB200F015F9F8BDDA05801A01234000F2
:1001F0001B06C01880185A428018CA0F10434900C5
:1002000007E04908C2071143DA05801A801940083F
:10021000801800F0F5F8F8BD61000122511A001BAA
:10022000F7E70122D2075140AAE70122D207504046
:10023000A6E7024670B54A40D30FDB0740002DD039
:100240004A002AD0010E140E000212020919400AB7
:10025000520A8418E50104465443000A120A2E0487
:100260005043A4194219200CC543AA18120C0125A9
:10027000AD03521C521912047F39240400D0521CC1
:10028000104301D44000491EC2B20C06C009201818
:10029000401C4008802A02D003E0002070BD4008C6
:1002A0004000002900DA0020184370BD70B50246F6
:1002B0004A40D50F40004A00ED0740085208002888
:1002C00014D0002A12D0C40DD30D41020120C00564
:1002D0005202490A520AE41A091812187D3491424E
:1002E00001D3641C00E04900002C01DA002070BD3D
:1002F0000023914201D3891A034340084900002892
:10030000F7D100290AD0914202D10121C90705E0A5
:10031000914201D2012101E00121C943E005C01849
:10032000401900F06DF870BD420005D04200120E79
:1003300052428A4201DB00207047C9050818704705
:10034000C217C10F504010B54018CA0796230021AC
:1003500000F05EF810BD10B500229623114600F0A3
:1003600057F810BDC20FD207400040080BD0C10D96
:100370000723DB01C91840020905400A1143C208DE
:100380004007114370470020014670470122D20701
:10039000002800DB101A002900DB511A8142704747
:1003A000F0B51FB40646002082B0054640240191F6
:1003B00000901BE0019922460F46304600F04CFAAF
:1003C000049A059B801A994110D31046194622467B
:1003D00000F032FA361A8F4101972246012000219F
:1003E000009F00F029FA38184D4100902046641E05
:1003F0000028DFDC019B00982946324607B0F0BD9B
:10040000002904DA401C490001D14008400070472F
:1004100070B40024050C05D11024000402D1002979
:1004200021D01124050E01D100020834050F01D19D
:100430000001241D850F01D18000A41C002801DBD0
:100440004000641C002908D020252E1B0D46F540D5
:10045000A14000D001212943084301061B1B000ACB
:10046000DB1D02D5002070BC7047DB051818801812
:100470000029F8DA401C4900F5D170BC4008400062
:1004800070470000F0B507460846584087B0C00FD7
:10049000049048000E46590040084908BC1A88419B
:1004A00005D2384631461E4617460B4602465800CE
:1004B000400810434DD0300D039040055900400DC9
:1004C000490D0590401A0290402873DA1803012163
:1004D000000B09050843019004980092002806D0FB
:1004E0001146019A494200209041009101900298E2
:1004F00040210A1A0199009800F09EF905460C4621
:100500006B4607CB00F0B9F9C0197141039A0E0D83
:100510000023D71756401A467A40164344D0049A0F
:10052000002A2DD0029A012A039A15DC1205C01A5E
:10053000914101263605001C7141D20F059ED2075C
:100540000093019202962A46234600F0B6F907B0BE
:10055000F0BD38463146FAE71605234A0F46B21871
:10056000C01AB74101210905001C4F4100187F4105
:10057000114618187941E20F10436D19644113E0D8
:10058000E2076D0815436408C2071443039A012665
:100590001205C01A91413605001C7141CE07400872
:1005A00030434908C01851412A46234600F078F9E3
:1005B000CDE7FFE7049801224000C117121A00237B
:1005C0008B4104983146C417381AA141EEE730B484
:1005D0000124E407634030BC54E730B40124E4074D
:1005E000614030BC4EE700000000E0FFF0B51FB4F2
:1005F00088B00B990998002448400999C00F490018
:1006000049080991C0070B990090490049080B91CE
:1006100009990898A64608431CD00B990A980843E4
:1006200018D0099801244000420D4800410D099856
:1006300024050003000B204309900B980003000BD6
:1006400020430B9050181C4940180022019014467A
:10065000104605E0002001460DB0F0BD032801DA88
:10066000034600E003239C46C11A0AAE0AE05F007D
:1006700008ADED5B4F00F75B7D430027AA187C4176
:10068000491C5B1E6145F2DD410004AB5A52210456
:10069000120C0A43240C401C0828DFDB019802904E
:1006A0000099704601910090059B049A079906985D
:1006B00000F003F9D0E700000DFCFFFFF0B50C4699
:1006C0005C4085B0E40FE40703944C000026640806
:1006D00059009446490802460296224321D06246B8
:1006E0000A431ED06200570D4A000E032303550D26
:1006F000012402462C492405781B1B0B360B40189D
:1007000023432643614600901C46501AB44103D34C
:100710000098401C009002E0921800985B4100286D
:1007200003DA0020014605B0F0BD002001210905D3
:100730000746864611E064461D46141BB54106D3A4
:100740006546521BB341744607430C43A646CD078A
:1007500040084908284392185B4105460D43EAD1F9
:100760001046184313D06046194650407140084364
:1007700006D06046101AB34106D20122002306E0DB
:1007800000220123DB0702E00122D243531000982C
:1007900074460105381C6141029C039D00196941A2
:1007A00000F07EF8BFE70000FD0300004A000903E7
:1007B0000123090B1B0519430A4B10B5520D9A4230
:1007C00002DA0020014610BD064B34339A4203DCA6
:1007D0009A1A00F041F810BD034BD21800F02CF823
:1007E00010BD0000FF030000CDFBFFFF10B5002986
:1007F00004DB0124E40740428C412146002B04DB4A
:100800001C460123DB075242A341994200D190428A
:1008100010BD0000064C0125064E05E0E36807CC3C
:100820002B430C3C98471034B442F7D3FFF74CFCF1
:10083000481F0008681F000810B5202A04DB014685
:10084000203A9140002010BD914020239C1A03467D
:10085000E3401943904010BD10B5202A04DB084640
:10086000203AD040002110BD0B46D340D040202478
:10087000A21A91400843194610BD10B5202A06DB84
:10088000CB170846203A1041C1170B4306E00B4630
:100890001341D0402024A21A91400843194610BDAC
:1008A00010B5002B08DA0024401C614192185B410E
:1008B0001A4301D14008400010BDF0B51FB482B00A
:1008C00005460C0003D0084600F0F2FA02E000F002
:1008D000EFFA20300246009021462846FFF7ACFF91
:1008E000049B059A04460F4618431143084314D04D
:1008F000184610431BD0009840210A1A1846059943
:10090000FFF7AAFF05460E46009A05990498FFF7DF
:1009100093FF084305D0012004E02046394607B084
:10092000F0BD0020C11705430E432C433743009907
:100930000E986305401A7905E40A00220C43FD0A6B
:100940000A3002D500200146E9E701051019694186
:100950000C9C0D9D00196941FFF7A2FFDFE770B500
:100960008C180578401C6B075B0F01D10378401C85
:100970002A1106D10278401C03E006780E70401C54
:10098000491C5B1EF9D12B0705D40023521E0DD440
:100990000B70491CFAE70378401CCB1A921C03E049
:1009A0001D780D70491C5B1C521EF9D5A142D8D38D
:1009B000002070BDF0B50022012423460D6893404D
:1009C0001D409D422AD10D79012D01D0022D12D159
:1009D000876855000326AE40B74387604E79AE4026
:1009E00085682E43866085889D43858085888B79C0
:1009F00093401D438580066855000323AB409E430A
:100A000006600E790768AE403E430660C6689E43A6
:100A1000C660CB79AB40C5682B43C360521C102A1B
:100A2000CBD3F0BD4B07DB0E9A40C90810B5890047
:100A30000818016A0F249C40A1430162016A114316
:100A4000016210BD0246928A00200A4200D00120B5
:100A5000704781617047002A01D08161704701852C
:100A60007047FEE770477047044A0029516901D07A
:100A7000014300E0814351617047000000100240D3
:100A8000044A0029916901D0014300E0814391614A
:100A90007047000000100240F8B5564D04466868E3
:100AA00000210C22544E104005D0042803D0082801
:100AB00003D00C281AD026601AE0696868680322FF
:100AC0008902D2030F0F1040BF1C00280AD0E86A29
:100AD0000107090F3046491CFFF72AFB78430146FE
:100AE000216005E0454839464143F9E74448206024
:100AF0006868444F0006000F3B5C20680246DA40FD
:100B000062606B685B055B0FFB5CDA40A2602B6B7D
:100B1000DB0501D43C4B05E06B685B0401D4530852
:100B200000E09308E3602B6B5F06384B03D4374F2C
:100B30001237276100E023612F6BFF0601D4666145
:100B400000E060612F6BBF070ED02F6BBF07BF0F98
:100B5000012F0BD02F6BBF07BF0F022F08D02F6BB9
:100B6000FF43BF0706D006E0A26104E0A06102E0F7
:100B7000A36100E0A6612F6BBF03BF0F0FD02F6BE7
:100B8000BF03BF0F012F0CD02F6BBF03BF0F022F6E
:100B900009D02F6BBF03BF0F032F06D006E0E26121
:100BA00004E0E06102E0E36100E0E6612F6B3F03F7
:100BB000BF0F0FD02A6B1203920F012A0CD0286BA3
:100BC0000003800F022809D0286B0003800F032840
:100BD00006D006E0226204E0206202E0236200E028
:100BE0002662286B000602D405486062F8BD616287
:100BF000F8BD00000010024000127A0000093D001C
:100C0000006CDC02DC010020809FD5000080000029
:100C100040220029018801D0114300E09143018066
:100C200070470246128900200A4200D00120704716
:100C3000808970478181704730B50388C122920155
:100C400013400A88CC890D892243CC882C43224347
:100C50004C8922438C8922431A4302808288094BA3
:100C60001A408B88134383800A8A028202880423F5
:100C700049889A4311430180818B034A1140818343
:100C800030BD0000FFF00000FFF700008288034B3A
:100C90001A40828082880A4382807047FFEF0000FA
:100CA000704700001CB500212248019100910268A4
:100CB00001231B041A4302605B000522120304682F
:100CC0001C400094019C641C0194009C002C02D1E7
:100CD000019C9442F3D10268920328D5012100912E
:100CE000154A1121116041684160416841604168C5
:100CF0007F22D203914341604168112212041143C3
:100D000041600168012212061143016001688901F6
:100D1000FCD541688908890041604168022211437D
:100D2000416041680907890F0229FAD11CBD009171
:100D30001CBD0000001002400020024006488268EE
:100D4000C168521C002359418260C16000680028BC
:100D500000D0004770470000B801002010B51448CB
:100D600001680122114301604168124A114041604B
:100D70000168114A11400160016801229204914307
:100D8000016041683F22120491434160C16A090930
:100D90000901C162016BFF22543291430163416B2F
:100DA00049084900416300218160FFF77BFF10BDC6
:100DB000001002400CB8FF08FFFFF6FE0029016892
:100DC00002D00122114301E0490849000160704747
:100DD0000246D26900200A4200D00120704700007C
:100DE00030B5044600688BB00D46400840002060D6
:100DF0006068032109038843A96801436160206892
:100E00001C49EA680840696811432A690243114392
:100E10002160A06803210902884369690143A16038
:100E20006846FFF739FE1448844201D106980AE06B
:100E30001248844201D1079805E01148844201D14B
:100E4000089800E0029821680904296800D540004C
:100E5000FFF76EF92A6852088A4200D8401C2168C0
:100E6000090404D50107074A490F10400843A0812F
:100E70000BB030BDF3E9FFFF0038014000440040F3
:100E800000480040F0FF0000C905C90D018570470A
:100E90000FB410B503A9044B044A029800F09EF960
:100EA00010BC08BC04B01847A9190008EC010020C8
:100EB0002021020C01D010211046020A01D0104658
:100EC0000839020901D01046091F820801D01046D6
:100ED000891E420801D0881E7047081A704702E038
:100EE00008C8121F08C1002AFAD1704770470020B5
:100EF00001E001C1121F002AFBD17047F7B50025A0
:100F0000491E82B0CEB22F461DE0701BC10F0818DB
:100F100040104019C4B2A0000299009009580498EA
:100F2000FFF734FA03D2601EC6B227460BE00299DF
:100F3000009809580498FFF729FA02D1204605B015
:100F4000F0BD641CE5B2B542DFD93846F7E7F3B52A
:100F500085680446680081B0000E25D021692068AC
:100F6000FFF70EF9606007466169FFF709F901466E
:100F70003846FFF79BF90646E06029460298FFF7DE
:100F800050F93146FFF755F92946FFF7F9F80546BC
:100F9000A0607F203146C005FFF743F93946FFF7CF
:100FA00048F920602846FEBD0298A0600298FEBD68
:100FB00030235943054B10B5C91818235A438A18D2
:100FC00001461046FFF7C3FF10BD00007800002067
:100FD000F0B51FB486B00998089A030D00210243AA
:100FE00014D05148514A181850430514119801283B
:100FF00010981AD0281A401C00264D4F4D490096D3
:1010000001910490002812DA444211E01198012461
:1010100049A3012801D11098C1430698119A846010
:101020000360C26041600BB0F0BD4042E4E704469B
:10103000210500203F4A001C51410391029012E01B
:10104000E00707D032463B4601990098FFF7CEFAF9
:101050000191009032463B4610461946FFF7C6FA0A
:1010600006460F466410002CEAD10498039B002822
:10107000029A0999089806DAFFF7B8FA019B009AD4
:10108000FFF7B4FA05E0FFF719FB019B009AFFF7A1
:1010900015FB04460E460022284BFFF7A7FB03D89A
:1010A0000020C043014607E00022254B2046314680
:1010B000FFF7E8F9FFF77AFB102409E0002C0ADBC0
:1010C0000A220023FFF76CF9079B30321A55641E81
:1010D00002460A43F2D11122641C079B121B1C1901
:1010E000119B012B03D0012308430ED10AE00843D2
:1010F00004D0112010900020119077E71098151A55
:101100006D1E0BE01098824202DD00236D1C03E08F
:10111000824201DA00236D1E002BEED00698119951
:101120008260C16030C07EE701FCFFFF104D00000F
:10113000000014400000F03F300000000000F043C9
:101140000000E03FFEB5244C0121A068FFF78CFCB5
:1011500000220521E068FFF765FC00220621E06817
:10116000FFF760FC00220721E068FFF75BFC608A64
:10117000218A00260843A18A012508430090022104
:10118000684601718671C571032747716946E06839
:10119000FFF710FCE08A218BA28B0843618B11437F
:1011A00008430090684605718671C57147716946AC
:1011B000E068FFF7FFFBE18AE068FFF74AFC218B5C
:1011C000E068FFF746FC618BE068FFF742FCA18B0B
:1011D000E068FFF73EFCFEBD54010020FFB597B06C
:1011E000064600251BE2252876D100242746F7492C
:1011F000049400E00443761C32780120203A9040A9
:101200000842F7D130782A280ED0022230780146E1
:101210003039092916D804990A235943303940181E
:101220001443761C0490F1E7189802C804911890B2
:10123000002904DA012040030443484204900220BC
:101240000443761C30782E2814D10420044370788F
:10125000761C2A2809D11898761C80C8189009E0B5
:101260000A214F43303FC719761C30780146303988
:101270000929F5D930786C2810D006DC4C281AD012
:1012800068280ED06A2817D104E0742813D07A2871
:1012900012D110E00120400504430CE001210905B2
:1012A00001E0032109050C437178814203D101203B
:1012B00000052418761C761C307866280BD013DCC9
:1012C00058287DD009DC00287BD04528F6D0462858
:1012D000F4D047281AD1A9E118E0632835D0642852
:1012E00070D0652812D1A1E170286CD008DC672885
:1012F000F1D069287DD06E280DD06F2806D1BCE0D2
:1013000073282ED0752873D0782859D01A9A199935
:1013100090476D1C82E16002400F022809D003282B
:101320000DD00428189801680DD00D60001D18908C
:1013300074E11898EA1701680D604A60F6E718989A
:1013400001680D80F2E70D70F0E718986A460178A1
:101350001172001D18900020507202A80090012008
:1013600005E0189802C8189000200091C04361075A
:101370000ED5002101E00199491C0191B94213DA0F
:101380008142F8DB019A0099895C0029F3D10BE0D6
:10139000002101E00199491C01918142FADB019A87
:1013A0000099895C0029F5D1019904981A9B471A84
:1013B00021463846199A00F099FA4019019903E03C
:1013C00051E030E115E050E0451807E00098009941
:1013D0000078491C00911A9A199990470198401E6B
:1013E0000190401CF2D1214638461A9B199A12E10D
:1013F00037E00A200021009001916002410F02298C
:1014000007D0189A01CA1892C2179446032908D027
:101410000AE01898C01DC108C90005C91891944672
:1014200007E000B2C2179446042902D140B2C117A6
:101430008C4600226146944506DA0A460021404265
:1014400091418C462D2102E0210504D52B216A46CD
:101450001173012103E0E10701D02021F7E7029198
:1014600056E00A200AE0102008E010200090002139
:10147000042004430191082703E008200021019182
:1014800000906002410F022907D0189A01CA1892F1
:1014900000229446032908D008E01898C01DC1080E
:1014A000C90005C91891944603E080B2042900D10F
:1014B000C0B20021029121072AD531780D917029FF
:1014C00006D0009A1021019B4A401A4305D00EE035
:1014D00040216A461173012108E06146014306D0AC
:1014E00030216A4611730D99517302210291009ABD
:1014F0000821019B4A401A430AD16146014301D1A8
:10150000610705D530216A46117301217F1E0291C2
:101510003178582904D02EA10E910DA90D910DE01E
:1015200030A1F9E76146019B009AFEF739FF0E9B57
:101530008C469B5C0D9A521E0D92137061460143BE
:10154000F0D10D9805A9081A20300190600703D545
:1015500001200004844300E001270198874201DD57
:10156000381A00E0002001990090411802980918EB
:101570000498401A0490E00306D421461A9B199A55
:10158000049800F0B3F94519002706E003A81A9A59
:10159000C05D199990476D1C7F1C02988742F5DB4E
:1015A000E0030CD521461A9B199A049800F09EF985
:1015B000451904E01A9A3020199990476D1C00993A
:1015C000481E00900029F5DC1FE0000009280100FA
:1015D00030313233343536373839616263646566A9
:1015E000000000003031323334353637383941426B
:1015F00043444546000000000D980D990078491CB1
:101600000D911A9A199990476D1C0199481E0190E5
:101610000029F1DC4DE100F059F94519761C3078CC
:10162000002800D0DFE528461BB0F0BD600700D4DD
:1016300006271898C01DC108C90048680A68083103
:10164000C30FDB071891190001D09CA108E0210508
:1016500001D59BA104E0E10701D09AA100E09AA185
:101660004300109130785B0865280CD006DC4528D3
:1016700009D046281DD0472841D141E0662818D01E
:1016800067283CD13CE00021112F01DB112000E054
:10169000781C0191009008A911A8FFF799FC1399F3
:1016A00005910021119A15927F1C129801970091C3
:1016B00050E00120C00703900120019008A9009785
:1016C00011A8FFF785FC139A149905920022119B2B
:1016D000009212981593059A0192002901D01046A4
:1016E00002E0791C40180190381A01D5019804E0F5
:1016F0004042401E0090781C0190C01B029043E0C5
:10170000012F00DA01270021112F01DD112000E057
:1017100038460191009008A911A8FFF759FC1399C8
:101720000591119A002112981592009101972107B5
:101730000CD40599B94201DB019900E0019101291E
:1017400004DD159A491E515C302906D0B84201DAF1
:10175000011D05DA0121029115E00199491EEDE70D
:10176000002805DC0099411800910199091A03E04D
:10177000019A411C914200DD01910099401A401CE0
:1017800002900120C0070390200706D40299019817
:10179000814202DB0020C043029000206946C877E6
:1017A00007AF012103980337C907884224D00220DC
:1017B00011902B201290039800280CDA40420390DD
:1017C0002D20129007E00A210398FEF7B1FC30317A
:1017D0007F1E039039701199481E11900029F2DC88
:1017E00003980028EFD1791E1298087030782021D4
:1017F00008404530BF1E387006A8C01BC01D0390AE
:1018000010980078002800D0012001994118029812
:10181000C0170918039809180498401A401E04902C
:10182000E00306D421461A9B199A049800F05EF84A
:10183000451910980078002803D01A9A19999047F2
:101840006D1CE00324D521461A9B199A049800F0D8
:101850004DF845191CE00098002807DB0099059811
:10186000884203DD1598405C199901E019993020F0
:101870001A9A904700986D1C401C00900298401ED8
:101880000290002804D11A9A2E20199990476D1CB5
:101890000199481E01900029DDDC05E038781A9A8C
:1018A0007F1C199990476D1C0399481E03900029CD
:1018B000F4DC21461A9B199A0498ACE62D0000002E
:1018C0002B0000002000000000000000F8B50446D6
:1018D00000251E461746880404D405E0394620201A
:1018E000B0476D1C641EF9D52846F8BDFFB5044607
:1018F000002581B01E46C80301D5302700E020270F
:10190000880404D505E038460399B0476D1C641E71
:10191000F9D5284605B0F0BD10B50F4C86B00121B1
:101920006068FFF7ADF814220C496846FEF716FC14
:1019300069462068FFF780F900212068FFF7A6F9C3
:1019400001212068FFF764F9E18A0122E068FFF7CE
:1019500082F806B010BD000054010020341F0008BA
:1019600070B5104C0546E18A0022E068FFF773F875
:1019700002212068FFF755F90128F9D1294620688E
:10198000FFF758F901212068FFF74BF90128F9D139
:10199000E18A0122E068FFF75EF82068FFF748F966
:1019A00000B270BD5401002070B5074D044681B2ED
:1019B000A868FFF769FA8021A868FFF709FA0028EC
:1019C000F9D0204670BD00003801002000F09AF9DF
:1019D00000F0F8F900F054F800F01EFA00F08AF96F
:1019E0000A4800F055FA0A4D002700240C2026462C
:1019F0004643A85D012803D1701980688047AF5520
:101A0000641CE4B20A2CF1D3EFE70000611E000869
:101A100000000020FEB5164C01212068FFF724F8D5
:101A2000012209216068FEF7FDFF01220A2160689A
:101A3000FEF7F8FF02216846017100258571208AB2
:101A4000009001266846C6710327477169466068A1
:101A5000FEF7B0FF684605718571608A00906846A0
:101A6000C671477169466068FEF7A4FFFEBD0000BD
:101A70003801002001498868C9687047B801002012
:101A800010B5FFF75FFB0648018BC182FFF744FFEB
:101A9000002000BF401CC0B2FF28FAD310BD0000D8
:101AA00054010020014908607047000050010020E7
:101AB000F1B590B000245E4861010F18109900251F
:101AC000E00040180D90B88B010407D580085949F3
:101AD000401E81434842FEF733FC02E08008FEF7D7
:101AE0003AFC0421C943FEF71FFC02460190102175
:101AF0005148FFF703FA0646A80002903818808A7A
:101B0000FEF729FC4D49FEF794FB4D49FEF7CEFB4D
:101B100003904948B60031188039C96F0091805947
:101B2000FEF77FFB049000990198FEF77AFB049979
:101B3000FEF7BCFB04904048403831188039C96F2B
:101B400000918059FEF76DFB0499FEF772FB009936
:101B5000FEF716FB0399FEF713FB02460390364887
:101B600010214038FFF7CAF900282DD086003248EE
:101B7000403831188039C96F00918059FEF751FB08
:101B8000019000990398FEF74CFB0199FEF78EFB3C
:101B90000190294831188039C96F00918059FEF7AA
:101BA00040FB0199FEF745FB0099FEF7E9FA204B4F
:101BB0000646283B1B682A4621469847029A0D99FB
:101BC000012C885027D101E00198F0E7012D22D1A6
:101BD0003046FEF7C7FB064610980791C068FEF72F
:101BE000C1FB0490109805918068FEF7BBFB029042
:101BF000109803914068FEF7B5FB01910090109892
:101C00000068FEF7AFFB0246962008900B4606964A
:101C10000CA0FFF73DF96D1CEDB2022D00D252E78A
:101C2000641CE4B2022C00D245E711B0F0BD000004
:101C300078010020FF3F0000F41E00080000FA4079
:101C400000007A44252E31662C09252E31662C0998
:101C5000252E31662C09252E31662C09252E31665C
:101C60002C0925640A000000F8B5002720487901F6
:101C70000246435A243AD3820D18287C0321044695
:101C8000801CFEF755FAA000890028186918408AC0
:101C900014310091AC1CA978A61D002904D001299B
:101CA0000BD0002020701EE0FFF75AFE009908803C
:101CB000FFF7E0FE03C60120F4E7FFF7DBFE0CCEE2
:101CC000801A994114230022C01A914102D30220A4
:101CD000207002E0A878022805D1287C0321401C4E
:101CE000FEF726FA29747F1CFFB2022FBED3F8BD7F
:101CF0007801002010B50248FFF7D4FE10BD0000A7
:101D0000B10F0008FEB500240E4E27460C202546D4
:101D1000454370590121FEF7A7FE01216846017174
:101D20008771A919088900906846C771032242711A
:101D300048686946FEF73EFE641CE4B2082CE5D311
:101D4000FEBD0000D800002010B5002000F024F8EF
:101D500010BD10B5012000F01FF810BD10B5022015
:101D600000F01AF810BD10B5032000F015F810BDF2
:101D700010B5042000F010F810BD10B5052000F0DB
:101D80000BF810BD10B5062000F006F810BD10B518
:101D9000072000F001F810BD10B508280ED20C2164
:101DA00048430749441821896068FEF74BFE01212A
:101DB000081AC2B221896068FEF74DFE10BD00000E
:101DC000D800002030B587B0FFF724FE0B4CE1258A
:101DD0006D020121E068FEF753FE182208496846AB
:101DE000FEF7BCF900956946A068FEF7F9FF0121EE
:101DF000A068FEF7E3FF07B030BD00003801002007
:101E00009C1E00081FB500200090019002900390D6
:101E10006846FFF74DFE1FBD10B50D480B49006821
:101E2000FEF786F90B49401E88420DD80A494861E1
:101E30000A480722C3691B021B0A4C042343C361DF
:101E4000002088610A6110BDFEE7000070170000E5
:101E5000C8010020FFFFFF0000E000E004ED00E00B
:101E600030B50020094901250C22034653435A1876
:101E70005488641E2404240C548002D1CD549388C9
:101E80005380401CC0B20A28EED330BD00000020B1
:101E90000149086070470000B80100200000000000
:101EA0000000000000000000000000000C00000026
:101EB0000000000000000000D34DA23E7B14DE3F76
:101EC00073680940A4703D40A8C64B4025065940A0
:101ED000819573403D0A83408941944023DBC14092
:101EE0008FC20D41CDCC3C410AD76B419A998D41AF
:101EF000B81EA541000000000000004100002C4277
:101F0000000068425238914200009C420000A64204
:101F10000000BA420000C8420000E2420000144340
:101F200071FD594333139143EC51B443D763D74305
:101F30000000FA4300000401000F0000010000024D
:101F40003000000007000000681F000800000020AB
:101F5000F00100005E0900082C200008F0010020BC
:101F600000040000EE0E0008211A64022113491D2E
:101F700022081AC802213A530C252C012C013A5D83
:101F80000C1C9001900C3A670C1CF401F40C3A7193
:101F90000C25580258023A7B0C1CBC02BC0C3A853A
:101FA0000C25200320033A8F0C1A0502218B691C93
:101FB000602B051E0CE125CDCCCC3D0B48803F1895
:101FC000198D21124819AC212A04033A480B590CE7
:101FD000391E590C498D490C9A100C9A200C9A40C4
:101FE0000C5280596014380140291D120283041BD1
:101FF0001A3014394949241A8021194C1A08024A06
:102000001060314975911202238B8E238BBE1A9B6F
:102010000831792909152001104B6CDCD33168098E
:0C20200001020304060708090CA91000C7
:04000005080000C12E
:00000001FF
